{
  "_format": "hh-sol-artifact-1",
  "contractName": "ERC6956Full",
  "sourceName": "contracts/ERC6956Full.sol",
  "abi": [
    {
      "inputs": [
        {
          "internalType": "string",
          "name": "_name",
          "type": "string"
        },
        {
          "internalType": "string",
          "name": "_symbol",
          "type": "string"
        }
      ],
      "stateMutability": "nonpayable",
      "type": "constructor"
    },
    {
      "inputs": [],
      "name": "ERC721EnumerableForbiddenBatchMint",
      "type": "error"
    },
    {
      "inputs": [
        {
          "internalType": "address",
          "name": "sender",
          "type": "address"
        },
        {
          "internalType": "uint256",
          "name": "tokenId",
          "type": "uint256"
        },
        {
          "internalType": "address",
          "name": "owner",
          "type": "address"
        }
      ],
      "name": "ERC721IncorrectOwner",
      "type": "error"
    },
    {
      "inputs": [
        {
          "internalType": "address",
          "name": "operator",
          "type": "address"
        },
        {
          "internalType": "uint256",
          "name": "tokenId",
          "type": "uint256"
        }
      ],
      "name": "ERC721InsufficientApproval",
      "type": "error"
    },
    {
      "inputs": [
        {
          "internalType": "address",
          "name": "approver",
          "type": "address"
        }
      ],
      "name": "ERC721InvalidApprover",
      "type": "error"
    },
    {
      "inputs": [
        {
          "internalType": "address",
          "name": "operator",
          "type": "address"
        }
      ],
      "name": "ERC721InvalidOperator",
      "type": "error"
    },
    {
      "inputs": [
        {
          "internalType": "address",
          "name": "owner",
          "type": "address"
        }
      ],
      "name": "ERC721InvalidOwner",
      "type": "error"
    },
    {
      "inputs": [
        {
          "internalType": "address",
          "name": "receiver",
          "type": "address"
        }
      ],
      "name": "ERC721InvalidReceiver",
      "type": "error"
    },
    {
      "inputs": [
        {
          "internalType": "address",
          "name": "sender",
          "type": "address"
        }
      ],
      "name": "ERC721InvalidSender",
      "type": "error"
    },
    {
      "inputs": [
        {
          "internalType": "uint256",
          "name": "tokenId",
          "type": "uint256"
        }
      ],
      "name": "ERC721NonexistentToken",
      "type": "error"
    },
    {
      "inputs": [
        {
          "internalType": "address",
          "name": "owner",
          "type": "address"
        },
        {
          "internalType": "uint256",
          "name": "index",
          "type": "uint256"
        }
      ],
      "name": "ERC721OutOfBoundsIndex",
      "type": "error"
    },
    {
      "anonymous": false,
      "inputs": [
        {
          "indexed": true,
          "internalType": "address",
          "name": "owner",
          "type": "address"
        },
        {
          "indexed": false,
          "internalType": "address",
          "name": "approved",
          "type": "address"
        },
        {
          "indexed": true,
          "internalType": "bytes32",
          "name": "anchor",
          "type": "bytes32"
        },
        {
          "indexed": false,
          "internalType": "uint256",
          "name": "tokenId",
          "type": "uint256"
        }
      ],
      "name": "AnchorApproval",
      "type": "event"
    },
    {
      "anonymous": false,
      "inputs": [
        {
          "indexed": true,
          "internalType": "address",
          "name": "from",
          "type": "address"
        },
        {
          "indexed": true,
          "internalType": "address",
          "name": "to",
          "type": "address"
        },
        {
          "indexed": true,
          "internalType": "bytes32",
          "name": "anchor",
          "type": "bytes32"
        },
        {
          "indexed": false,
          "internalType": "uint256",
          "name": "tokenId",
          "type": "uint256"
        },
        {
          "indexed": false,
          "internalType": "string",
          "name": "cid",
          "type": "string"
        }
      ],
      "name": "AnchorTransfer",
      "type": "event"
    },
    {
      "anonymous": false,
      "inputs": [
        {
          "indexed": true,
          "internalType": "address",
          "name": "owner",
          "type": "address"
        },
        {
          "indexed": true,
          "internalType": "address",
          "name": "approved",
          "type": "address"
        },
        {
          "indexed": true,
          "internalType": "uint256",
          "name": "tokenId",
          "type": "uint256"
        }
      ],
      "name": "Approval",
      "type": "event"
    },
    {
      "anonymous": false,
      "inputs": [
        {
          "indexed": true,
          "internalType": "address",
          "name": "owner",
          "type": "address"
        },
        {
          "indexed": true,
          "internalType": "address",
          "name": "operator",
          "type": "address"
        },
        {
          "indexed": false,
          "internalType": "bool",
          "name": "approved",
          "type": "bool"
        }
      ],
      "name": "ApprovalForAll",
      "type": "event"
    },
    {
      "anonymous": false,
      "inputs": [
        {
          "indexed": false,
          "internalType": "enum IERC6956.Authorization",
          "name": "approveAuth",
          "type": "uint8"
        },
        {
          "indexed": true,
          "internalType": "address",
          "name": "maintainer",
          "type": "address"
        }
      ],
      "name": "ApproveAuthorizationChange",
      "type": "event"
    },
    {
      "anonymous": false,
      "inputs": [
        {
          "indexed": true,
          "internalType": "address",
          "name": "to",
          "type": "address"
        },
        {
          "indexed": true,
          "internalType": "bytes32",
          "name": "anchor",
          "type": "bytes32"
        },
        {
          "indexed": true,
          "internalType": "bytes32",
          "name": "attestationHash",
          "type": "bytes32"
        },
        {
          "indexed": false,
          "internalType": "uint256",
          "name": "totalUsedAttestationsForAnchor",
          "type": "uint256"
        }
      ],
      "name": "AttestationUse",
      "type": "event"
    },
    {
      "anonymous": false,
      "inputs": [
        {
          "indexed": false,
          "internalType": "enum IERC6956.Authorization",
          "name": "burnAuth",
          "type": "uint8"
        },
        {
          "indexed": true,
          "internalType": "address",
          "name": "maintainer",
          "type": "address"
        }
      ],
      "name": "BurnAuthorizationChange",
      "type": "event"
    },
    {
      "anonymous": false,
      "inputs": [
        {
          "indexed": false,
          "internalType": "bool",
          "name": "areFloating",
          "type": "bool"
        },
        {
          "indexed": false,
          "internalType": "address",
          "name": "operator",
          "type": "address"
        }
      ],
      "name": "FloatingAllStateChange",
      "type": "event"
    },
    {
      "anonymous": false,
      "inputs": [
        {
          "indexed": false,
          "internalType": "enum IERC6956.Authorization",
          "name": "startAuthorization",
          "type": "uint8"
        },
        {
          "indexed": false,
          "internalType": "enum IERC6956.Authorization",
          "name": "stopAuthorization",
          "type": "uint8"
        },
        {
          "indexed": false,
          "internalType": "address",
          "name": "maintainer",
          "type": "address"
        }
      ],
      "name": "FloatingAuthorizationChange",
      "type": "event"
    },
    {
      "anonymous": false,
      "inputs": [
        {
          "indexed": true,
          "internalType": "bytes32",
          "name": "anchor",
          "type": "bytes32"
        },
        {
          "indexed": true,
          "internalType": "uint256",
          "name": "tokenId",
          "type": "uint256"
        },
        {
          "indexed": false,
          "internalType": "enum IERC6956Floatable.FloatState",
          "name": "isFloating",
          "type": "uint8"
        },
        {
          "indexed": false,
          "internalType": "address",
          "name": "operator",
          "type": "address"
        }
      ],
      "name": "FloatingStateChange",
      "type": "event"
    },
    {
      "anonymous": false,
      "inputs": [
        {
          "indexed": true,
          "internalType": "address",
          "name": "oracle",
          "type": "address"
        },
        {
          "indexed": true,
          "internalType": "bool",
          "name": "trusted",
          "type": "bool"
        }
      ],
      "name": "OracleUpdate",
      "type": "event"
    },
    {
      "anonymous": false,
      "inputs": [
        {
          "indexed": true,
          "internalType": "address",
          "name": "from",
          "type": "address"
        },
        {
          "indexed": true,
          "internalType": "address",
          "name": "to",
          "type": "address"
        },
        {
          "indexed": true,
          "internalType": "uint256",
          "name": "tokenId",
          "type": "uint256"
        }
      ],
      "name": "Transfer",
      "type": "event"
    },
    {
      "anonymous": false,
      "inputs": [
        {
          "indexed": true,
          "internalType": "bytes32",
          "name": "validAnchorHash",
          "type": "bytes32"
        },
        {
          "indexed": true,
          "internalType": "address",
          "name": "maintainer",
          "type": "address"
        }
      ],
      "name": "ValidAnchorsUpdate",
      "type": "event"
    },
    {
      "inputs": [],
      "name": "allFloating",
      "outputs": [
        {
          "internalType": "bool",
          "name": "",
          "type": "bool"
        }
      ],
      "stateMutability": "view",
      "type": "function"
    },
    {
      "inputs": [
        {
          "internalType": "uint256",
          "name": "",
          "type": "uint256"
        }
      ],
      "name": "anchorByToken",
      "outputs": [
        {
          "internalType": "bytes32",
          "name": "",
          "type": "bytes32"
        }
      ],
      "stateMutability": "view",
      "type": "function"
    },
    {
      "inputs": [
        {
          "internalType": "bytes32",
          "name": "anchor",
          "type": "bytes32"
        },
        {
          "internalType": "bytes32[]",
          "name": "proof",
          "type": "bytes32[]"
        }
      ],
      "name": "anchorValid",
      "outputs": [
        {
          "internalType": "bool",
          "name": "",
          "type": "bool"
        }
      ],
      "stateMutability": "view",
      "type": "function"
    },
    {
      "inputs": [
        {
          "internalType": "address",
          "name": "to",
          "type": "address"
        },
        {
          "internalType": "uint256",
          "name": "tokenId",
          "type": "uint256"
        }
      ],
      "name": "approve",
      "outputs": [],
      "stateMutability": "nonpayable",
      "type": "function"
    },
    {
      "inputs": [
        {
          "internalType": "bytes",
          "name": "attestation",
          "type": "bytes"
        },
        {
          "internalType": "bytes",
          "name": "data",
          "type": "bytes"
        }
      ],
      "name": "approveAnchor",
      "outputs": [],
      "stateMutability": "nonpayable",
      "type": "function"
    },
    {
      "inputs": [
        {
          "internalType": "bytes",
          "name": "attestation",
          "type": "bytes"
        }
      ],
      "name": "approveAnchor",
      "outputs": [],
      "stateMutability": "nonpayable",
      "type": "function"
    },
    {
      "inputs": [],
      "name": "approveAuthorization",
      "outputs": [
        {
          "internalType": "enum IERC6956.Authorization",
          "name": "",
          "type": "uint8"
        }
      ],
      "stateMutability": "view",
      "type": "function"
    },
    {
      "inputs": [
        {
          "internalType": "bytes32",
          "name": "",
          "type": "bytes32"
        }
      ],
      "name": "attestationsUsedByAnchor",
      "outputs": [
        {
          "internalType": "uint256",
          "name": "",
          "type": "uint256"
        }
      ],
      "stateMutability": "view",
      "type": "function"
    },
    {
      "inputs": [
        {
          "internalType": "address",
          "name": "owner",
          "type": "address"
        }
      ],
      "name": "balanceOf",
      "outputs": [
        {
          "internalType": "uint256",
          "name": "",
          "type": "uint256"
        }
      ],
      "stateMutability": "view",
      "type": "function"
    },
    {
      "inputs": [
        {
          "internalType": "uint256",
          "name": "tokenId",
          "type": "uint256"
        }
      ],
      "name": "burn",
      "outputs": [],
      "stateMutability": "nonpayable",
      "type": "function"
    },
    {
      "inputs": [
        {
          "internalType": "bytes",
          "name": "attestation",
          "type": "bytes"
        }
      ],
      "name": "burnAnchor",
      "outputs": [],
      "stateMutability": "nonpayable",
      "type": "function"
    },
    {
      "inputs": [
        {
          "internalType": "bytes",
          "name": "attestation",
          "type": "bytes"
        },
        {
          "internalType": "bytes",
          "name": "data",
          "type": "bytes"
        }
      ],
      "name": "burnAnchor",
      "outputs": [],
      "stateMutability": "nonpayable",
      "type": "function"
    },
    {
      "inputs": [],
      "name": "burnAuthorization",
      "outputs": [
        {
          "internalType": "enum IERC6956.Authorization",
          "name": "",
          "type": "uint8"
        }
      ],
      "stateMutability": "view",
      "type": "function"
    },
    {
      "inputs": [
        {
          "internalType": "bytes32",
          "name": "",
          "type": "bytes32"
        }
      ],
      "name": "cidByAnchor",
      "outputs": [
        {
          "internalType": "string",
          "name": "",
          "type": "string"
        }
      ],
      "stateMutability": "view",
      "type": "function"
    },
    {
      "inputs": [
        {
          "internalType": "bytes",
          "name": "attestation",
          "type": "bytes"
        },
        {
          "internalType": "string",
          "name": "cid",
          "type": "string"
        },
        {
          "internalType": "bytes",
          "name": "data",
          "type": "bytes"
        }
      ],
      "name": "createAnchor",
      "outputs": [],
      "stateMutability": "nonpayable",
      "type": "function"
    },
    {
      "inputs": [
        {
          "internalType": "bytes",
          "name": "attestation",
          "type": "bytes"
        },
        {
          "internalType": "string",
          "name": "cid",
          "type": "string"
        }
      ],
      "name": "createAnchor",
      "outputs": [],
      "stateMutability": "nonpayable",
      "type": "function"
    },
    {
      "inputs": [
        {
          "internalType": "enum IERC6956.Authorization",
          "name": "_auth",
          "type": "uint8"
        }
      ],
      "name": "createAuthorizationMap",
      "outputs": [
        {
          "internalType": "uint256",
          "name": "",
          "type": "uint256"
        }
      ],
      "stateMutability": "pure",
      "type": "function"
    },
    {
      "inputs": [
        {
          "internalType": "bytes",
          "name": "attestation",
          "type": "bytes"
        },
        {
          "internalType": "bytes",
          "name": "data",
          "type": "bytes"
        }
      ],
      "name": "decodeAttestationIfValid",
      "outputs": [
        {
          "internalType": "address",
          "name": "to",
          "type": "address"
        },
        {
          "internalType": "bytes32",
          "name": "anchor",
          "type": "bytes32"
        },
        {
          "internalType": "bytes32",
          "name": "attestationHash",
          "type": "bytes32"
        }
      ],
      "stateMutability": "view",
      "type": "function"
    },
    {
      "inputs": [
        {
          "internalType": "bytes32",
          "name": "anchor",
          "type": "bytes32"
        },
        {
          "internalType": "enum IERC6956Floatable.FloatState",
          "name": "newFloatState",
          "type": "uint8"
        }
      ],
      "name": "float",
      "outputs": [],
      "stateMutability": "nonpayable",
      "type": "function"
    },
    {
      "inputs": [
        {
          "internalType": "bool",
          "name": "doFloatAll",
          "type": "bool"
        }
      ],
      "name": "floatAll",
      "outputs": [],
      "stateMutability": "nonpayable",
      "type": "function"
    },
    {
      "inputs": [],
      "name": "floatStartAuthorization",
      "outputs": [
        {
          "internalType": "enum IERC6956.Authorization",
          "name": "",
          "type": "uint8"
        }
      ],
      "stateMutability": "view",
      "type": "function"
    },
    {
      "inputs": [],
      "name": "floatStopAuthorization",
      "outputs": [
        {
          "internalType": "enum IERC6956.Authorization",
          "name": "",
          "type": "uint8"
        }
      ],
      "stateMutability": "view",
      "type": "function"
    },
    {
      "inputs": [
        {
          "internalType": "bytes32",
          "name": "anchor",
          "type": "bytes32"
        }
      ],
      "name": "floating",
      "outputs": [
        {
          "internalType": "bool",
          "name": "",
          "type": "bool"
        }
      ],
      "stateMutability": "view",
      "type": "function"
    },
    {
      "inputs": [
        {
          "internalType": "bytes32",
          "name": "",
          "type": "bytes32"
        }
      ],
      "name": "floatingStateByAnchor",
      "outputs": [
        {
          "internalType": "enum IERC6956Floatable.FloatState",
          "name": "",
          "type": "uint8"
        }
      ],
      "stateMutability": "view",
      "type": "function"
    },
    {
      "inputs": [
        {
          "internalType": "uint256",
          "name": "tokenId",
          "type": "uint256"
        }
      ],
      "name": "getApproved",
      "outputs": [
        {
          "internalType": "address",
          "name": "",
          "type": "address"
        }
      ],
      "stateMutability": "view",
      "type": "function"
    },
    {
      "inputs": [
        {
          "internalType": "enum Role",
          "name": "_role",
          "type": "uint8"
        },
        {
          "internalType": "uint256",
          "name": "_auth",
          "type": "uint256"
        }
      ],
      "name": "hasAuthorization",
      "outputs": [
        {
          "internalType": "bool",
          "name": "",
          "type": "bool"
        }
      ],
      "stateMutability": "pure",
      "type": "function"
    },
    {
      "inputs": [
        {
          "internalType": "uint256",
          "name": "",
          "type": "uint256"
        }
      ],
      "name": "ipfsHashByToken",
      "outputs": [
        {
          "internalType": "bytes32",
          "name": "",
          "type": "bytes32"
        }
      ],
      "stateMutability": "view",
      "type": "function"
    },
    {
      "inputs": [
        {
          "internalType": "address",
          "name": "owner",
          "type": "address"
        },
        {
          "internalType": "address",
          "name": "operator",
          "type": "address"
        }
      ],
      "name": "isApprovedForAll",
      "outputs": [
        {
          "internalType": "bool",
          "name": "",
          "type": "bool"
        }
      ],
      "stateMutability": "view",
      "type": "function"
    },
    {
      "inputs": [
        {
          "internalType": "address",
          "name": "a",
          "type": "address"
        }
      ],
      "name": "isMaintainer",
      "outputs": [
        {
          "internalType": "bool",
          "name": "",
          "type": "bool"
        }
      ],
      "stateMutability": "view",
      "type": "function"
    },
    {
      "inputs": [
        {
          "internalType": "address",
          "name": "oracleAddress",
          "type": "address"
        }
      ],
      "name": "isTrustedOracle",
      "outputs": [
        {
          "internalType": "bool",
          "name": "isTrusted",
          "type": "bool"
        }
      ],
      "stateMutability": "view",
      "type": "function"
    },
    {
      "inputs": [
        {
          "internalType": "address",
          "name": "",
          "type": "address"
        }
      ],
      "name": "maintainers",
      "outputs": [
        {
          "internalType": "bool",
          "name": "",
          "type": "bool"
        }
      ],
      "stateMutability": "view",
      "type": "function"
    },
    {
      "inputs": [],
      "name": "maxAttestationExpireTime",
      "outputs": [
        {
          "internalType": "uint256",
          "name": "",
          "type": "uint256"
        }
      ],
      "stateMutability": "view",
      "type": "function"
    },
    {
      "inputs": [],
      "name": "name",
      "outputs": [
        {
          "internalType": "string",
          "name": "",
          "type": "string"
        }
      ],
      "stateMutability": "view",
      "type": "function"
    },
    {
      "inputs": [
        {
          "internalType": "uint256",
          "name": "tokenId",
          "type": "uint256"
        }
      ],
      "name": "ownerOf",
      "outputs": [
        {
          "internalType": "address",
          "name": "",
          "type": "address"
        }
      ],
      "stateMutability": "view",
      "type": "function"
    },
    {
      "inputs": [
        {
          "internalType": "address",
          "name": "from",
          "type": "address"
        },
        {
          "internalType": "address",
          "name": "to",
          "type": "address"
        },
        {
          "internalType": "uint256",
          "name": "tokenId",
          "type": "uint256"
        }
      ],
      "name": "safeTransferFrom",
      "outputs": [],
      "stateMutability": "nonpayable",
      "type": "function"
    },
    {
      "inputs": [
        {
          "internalType": "address",
          "name": "from",
          "type": "address"
        },
        {
          "internalType": "address",
          "name": "to",
          "type": "address"
        },
        {
          "internalType": "uint256",
          "name": "tokenId",
          "type": "uint256"
        },
        {
          "internalType": "bytes",
          "name": "data",
          "type": "bytes"
        }
      ],
      "name": "safeTransferFrom",
      "outputs": [],
      "stateMutability": "nonpayable",
      "type": "function"
    },
    {
      "inputs": [
        {
          "internalType": "address",
          "name": "operator",
          "type": "address"
        },
        {
          "internalType": "bool",
          "name": "approved",
          "type": "bool"
        }
      ],
      "name": "setApprovalForAll",
      "outputs": [],
      "stateMutability": "nonpayable",
      "type": "function"
    },
    {
      "inputs": [
        {
          "internalType": "bytes4",
          "name": "interfaceId",
          "type": "bytes4"
        }
      ],
      "name": "supportsInterface",
      "outputs": [
        {
          "internalType": "bool",
          "name": "",
          "type": "bool"
        }
      ],
      "stateMutability": "view",
      "type": "function"
    },
    {
      "inputs": [],
      "name": "symbol",
      "outputs": [
        {
          "internalType": "string",
          "name": "",
          "type": "string"
        }
      ],
      "stateMutability": "view",
      "type": "function"
    },
    {
      "inputs": [
        {
          "internalType": "bytes32",
          "name": "",
          "type": "bytes32"
        }
      ],
      "name": "tokenByAnchor",
      "outputs": [
        {
          "internalType": "uint256",
          "name": "",
          "type": "uint256"
        }
      ],
      "stateMutability": "view",
      "type": "function"
    },
    {
      "inputs": [
        {
          "internalType": "uint256",
          "name": "index",
          "type": "uint256"
        }
      ],
      "name": "tokenByIndex",
      "outputs": [
        {
          "internalType": "uint256",
          "name": "",
          "type": "uint256"
        }
      ],
      "stateMutability": "view",
      "type": "function"
    },
    {
      "inputs": [
        {
          "internalType": "address",
          "name": "owner",
          "type": "address"
        },
        {
          "internalType": "uint256",
          "name": "index",
          "type": "uint256"
        }
      ],
      "name": "tokenOfOwnerByIndex",
      "outputs": [
        {
          "internalType": "uint256",
          "name": "",
          "type": "uint256"
        }
      ],
      "stateMutability": "view",
      "type": "function"
    },
    {
      "inputs": [
        {
          "internalType": "uint256",
          "name": "tokenId",
          "type": "uint256"
        }
      ],
      "name": "tokenURI",
      "outputs": [
        {
          "internalType": "string",
          "name": "",
          "type": "string"
        }
      ],
      "stateMutability": "view",
      "type": "function"
    },
    {
      "inputs": [],
      "name": "totalSupply",
      "outputs": [
        {
          "internalType": "uint256",
          "name": "",
          "type": "uint256"
        }
      ],
      "stateMutability": "view",
      "type": "function"
    },
    {
      "inputs": [
        {
          "internalType": "bytes",
          "name": "attestation",
          "type": "bytes"
        }
      ],
      "name": "transferAnchor",
      "outputs": [],
      "stateMutability": "nonpayable",
      "type": "function"
    },
    {
      "inputs": [
        {
          "internalType": "bytes",
          "name": "attestation",
          "type": "bytes"
        },
        {
          "internalType": "bytes",
          "name": "data",
          "type": "bytes"
        }
      ],
      "name": "transferAnchor",
      "outputs": [],
      "stateMutability": "nonpayable",
      "type": "function"
    },
    {
      "inputs": [
        {
          "internalType": "address",
          "name": "from",
          "type": "address"
        },
        {
          "internalType": "address",
          "name": "to",
          "type": "address"
        },
        {
          "internalType": "uint256",
          "name": "tokenId",
          "type": "uint256"
        }
      ],
      "name": "transferFrom",
      "outputs": [],
      "stateMutability": "nonpayable",
      "type": "function"
    },
    {
      "inputs": [
        {
          "internalType": "enum IERC6956.Authorization",
          "name": "approveAuth",
          "type": "uint8"
        }
      ],
      "name": "updateApproveAuthorization",
      "outputs": [],
      "stateMutability": "nonpayable",
      "type": "function"
    },
    {
      "inputs": [
        {
          "internalType": "string",
          "name": "tokenBaseURI",
          "type": "string"
        }
      ],
      "name": "updateBaseURI",
      "outputs": [],
      "stateMutability": "nonpayable",
      "type": "function"
    },
    {
      "inputs": [
        {
          "internalType": "enum IERC6956.Authorization",
          "name": "burnAuth",
          "type": "uint8"
        }
      ],
      "name": "updateBurnAuthorization",
      "outputs": [],
      "stateMutability": "nonpayable",
      "type": "function"
    },
    {
      "inputs": [
        {
          "internalType": "enum IERC6956.Authorization",
          "name": "startAuthorization",
          "type": "uint8"
        },
        {
          "internalType": "enum IERC6956.Authorization",
          "name": "stopAuthorization",
          "type": "uint8"
        }
      ],
      "name": "updateFloatingAuthorization",
      "outputs": [],
      "stateMutability": "nonpayable",
      "type": "function"
    },
    {
      "inputs": [
        {
          "internalType": "address",
          "name": "_maintainer",
          "type": "address"
        },
        {
          "internalType": "bool",
          "name": "_add",
          "type": "bool"
        }
      ],
      "name": "updateMaintainer",
      "outputs": [],
      "stateMutability": "nonpayable",
      "type": "function"
    },
    {
      "inputs": [
        {
          "internalType": "address",
          "name": "oracle",
          "type": "address"
        },
        {
          "internalType": "bool",
          "name": "doTrust",
          "type": "bool"
        }
      ],
      "name": "updateOracle",
      "outputs": [],
      "stateMutability": "nonpayable",
      "type": "function"
    },
    {
      "inputs": [
        {
          "internalType": "bytes32",
          "name": "merkleRootNode",
          "type": "bytes32"
        }
      ],
      "name": "updateValidAnchors",
      "outputs": [],
      "stateMutability": "nonpayable",
      "type": "function"
    }
  ],
  "bytecode": "0x61012c60135560a06040526000608090815260169062000020908262000150565b503480156200002e57600080fd5b5060405162004580380380620045808339810160408190526200005191620002cb565b81818181600062000063838262000150565b50600162000072828262000150565b5050336000908152600b60205260409020805460ff1916600117905550506014805461050561ffff199091161790555062000335915050565b634e487b7160e01b600052604160045260246000fd5b600181811c90821680620000d657607f821691505b602082108103620000f757634e487b7160e01b600052602260045260246000fd5b50919050565b601f8211156200014b57600081815260208120601f850160051c81016020861015620001265750805b601f850160051c820191505b81811015620001475782815560010162000132565b5050505b505050565b81516001600160401b038111156200016c576200016c620000ab565b62000184816200017d8454620000c1565b84620000fd565b602080601f831160018114620001bc5760008415620001a35750858301515b600019600386901b1c1916600185901b17855562000147565b600085815260208120601f198616915b82811015620001ed57888601518255948401946001909101908401620001cc565b50858210156200020c5787850151600019600388901b60f8161c191681555b5050505050600190811b01905550565b600082601f8301126200022e57600080fd5b81516001600160401b03808211156200024b576200024b620000ab565b604051601f8301601f19908116603f01168101908282118183101715620002765762000276620000ab565b816040528381526020925086838588010111156200029357600080fd5b600091505b83821015620002b7578582018301518183018401529082019062000298565b600093810190920192909252949350505050565b60008060408385031215620002df57600080fd5b82516001600160401b0380821115620002f757600080fd5b62000305868387016200021c565b935060208501519150808211156200031c57600080fd5b506200032b858286016200021c565b9150509250929050565b61423b80620003456000396000f3fe608060405234801561001057600080fd5b50600436106103425760003560e01c806356aaad0a116101b857806399a346af11610104578063d2c5d45e116100a2578063dd57366a1161007c578063dd57366a146107ba578063e753dd19146107cd578063e985e9c5146107da578063ff17d74d146107ed57600080fd5b8063d2c5d45e14610782578063d5417c8214610795578063d79ca0b3146107a857600080fd5b8063aa6367db116100de578063aa6367db14610736578063b88d4fde14610749578063b97f592e1461075c578063c87b56dd1461076f57600080fd5b806399a346af146106f0578063a22cb46514610710578063a45bb8311461072357600080fd5b80636fedcf9d1161017157806384bf8fba1161014b57806384bf8fba146106bb578063901637e2146106c8578063931688cb146106d557806395d89b41146106e857600080fd5b80636fedcf9d1461067357806370a082311461067c57806370abc41f1461068f57600080fd5b806356aaad0a146105e457806359d24192146105f75780635aa7ba8f1461060a5780635c9a43441461061d5780636352211e1461064d5780636e0def9d1461066057600080fd5b806322e26bf511610292578063395c28f91161023057806343f6805f1161020a57806343f6805f146105735780634f6ccce7146105ab57806350e3958b146105be57806354138bb3146105d157600080fd5b8063395c28f91461053a57806342842e0e1461054d57806342966c681461056057600080fd5b806327f1e2511161026c57806327f1e251146104e2578063287a0c54146104f557806328a8f107146105145780632f745c591461052757600080fd5b806322e26bf51461049c57806323b872dd146104bc57806325ed3fdc146104cf57600080fd5b80630ca82bcc116102ff57806316c99b79116102d957806316c99b791461043357806318160ddd146104615780631e4b62251461046957806320cac85c1461048957600080fd5b80630ca82bcc146103fa5780630cd53d5f1461040d57806315f752811461042057600080fd5b806301ffc9a714610347578063051c9bd81461036f57806306fdde0314610382578063081812fc146103975780630823c562146103c2578063095ea7b3146103e5575b600080fd5b61035a6103553660046135d6565b610800565b60405190151581526020015b60405180910390f35b61035a61037d36600461365c565b610860565b61038a610ae9565b604051610366919061374d565b6103aa6103a5366004613760565b610b7b565b6040516001600160a01b039091168152602001610366565b61035a6103d036600461378e565b600b6020526000908152604090205460ff1681565b6103f86103f33660046137ab565b610ba4565b005b6103f861040836600461384f565b610bfa565b6103f861041b3660046138d6565b610e00565b6103f861042e36600461390a565b610e1c565b610453610441366004613760565b600d6020526000908152604090205481565b604051908152602001610366565b600854610453565b610453610477366004613760565b60116020526000908152604090205481565b6103f861049736600461390a565b610e97565b6104536104aa366004613760565b60156020526000908152604090205481565b6103f86104ca36600461396d565b610f61565b6103f86104dd3660046138d6565b610fe6565b6103f86104f03660046139c3565b610fff565b60145461050790610100900460ff1681565b6040516103669190613a08565b6103f8610522366004613760565b6110b6565b6104536105353660046137ab565b611110565b6103f8610548366004613a25565b611175565b6103f861055b36600461396d565b611223565b6103f861056e366004613760565b611243565b61058661058136600461390a565b6112b2565b604080516001600160a01b039094168452602084019290925290820152606001610366565b6104536105b9366004613760565b61169a565b6104536105cc366004613a58565b6116f3565b6103f86105df366004613a73565b611851565b6103f86105f236600461390a565b6119e9565b61035a610605366004613aa7565b611a03565b6103f86106183660046138d6565b611a29565b61064061062b366004613760565b60196020526000908152604090205460ff1681565b6040516103669190613ad9565b6103aa61065b366004613760565b611a42565b61038a61066e366004613760565b611a4d565b61045360135481565b61045361068a36600461378e565b611ae7565b61035a61069d36600461378e565b6001600160a01b03166000908152600e602052604090205460ff1690565b6018546105079060ff1681565b6014546105079060ff1681565b6103f86106e3366004613ae7565b611b2f565b61038a611b61565b6104536106fe366004613760565b600c6020526000908152604090205481565b6103f861071e366004613b58565b611b70565b6103f8610731366004613a58565b611b7b565b6103f8610744366004613b58565b611c08565b6103f8610757366004613b84565b611c58565b6103f861076a36600461390a565b611c6f565b61038a61077d366004613760565b611e67565b6103f8610790366004613a58565b611f97565b6103f86107a3366004613b58565b61201b565b60185461050790610100900460ff1681565b61035a6107c836600461378e565b612094565b601a5461035a9060ff1681565b61035a6107e8366004613bef565b6120b2565b61035a6107fb366004613760565b6120e0565b60006001600160e01b031982166375a2e93360e01b148061083157506001600160e01b0319821663f82773f760e01b145b8061084b57506001600160e01b0319821662a3937b60e31b145b8061085a575061085a82612104565b92915050565b60006108896040518060400160405280600681526020016530b731b437b960d11b8152506121a9565b610892836121ec565b6108bf6040518060400160405280600c81526020016b313cba32b99030b731b437b960a11b8152506121a9565b6108e9836040516020016108d591815260200190565b604051602081830303815290604052612231565b6109276040518060400160405280601781526020017f6b656363616b3235362862797465732920616e63686f720000000000000000008152506121a9565b6109588360405160200161093d91815260200190565b604051602081830303815290604052805190602001206121ec565b6109866040518060400160405280600d81526020016c31b7b731b0ba1030b731b437b960991b8152506121a9565b6109be8360405160200161099c91815260200190565b60408051601f19818403018152828252805160209182012090830152016108d5565b6109ed6040518060400160405280600e81526020016d32b731b7b232b21030b731b437b960911b8152506121a9565b610a2583604051602001610a0391815260200190565b60408051601f198184030181528282528051602091820120908301520161093d565b610a636040518060400160405280601781526020017f5f76616c6964416e63686f72734d65726b6c65526f6f740000000000000000008152506121a9565b610a6e601b546121ec565b610ac8610ac383601b5486604051602001610a8b91815260200190565b60408051601f198184030181528282528051602091820120908301520160405160208183030381529060405280519060200120612274565b61228a565b610ae282601b5485604051602001610a8b91815260200190565b9392505050565b606060008054610af890613c1d565b80601f0160208091040260200160405190810160405280929190818152602001828054610b2490613c1d565b8015610b715780601f10610b4657610100808354040283529160200191610b71565b820191906000526020600020905b815481529060010190602001808311610b5457829003601f168201915b5050505050905090565b6000610b86826122cb565b506000828152600460205260409020546001600160a01b031661085a565b601454600090610bbb90610100900460ff166116f3565b610bc58282611a03565b610bea5760405162461bcd60e51b8152600401610be190613c57565b60405180910390fd5b610bf48484612304565b50505050565b6000806000610c2d6040518060400160405280600d81526020016c7175692063692061727269766f60981b8152506121a9565b610c3786856112b2565b604080518082019091526011815270185d1d195cdd185d1a5bdb881d985b1a59607a1b6020820152919550919350909150610c71906121a9565b610c7c82848361230f565b6000838152600d6020908152604080832054600a9092528220805460ff19166001179055908115610ce75760405162461bcd60e51b8152602060048201526015602482015274416e63686f7220616c72656164792065786973747360581b6044820152606401610be1565b610d1a6040518060400160405280601281526020017167697573746f205f736166654d696e74282960701b8152506121a9565b610d2584868961239e565b610d636040518060400160405280601f81526020017f75726920746f6b656e20696e7369646520637265617465416e63686f723a20008152506121a9565b610d6c82612492565b6000610d7783611e67565b9050610d9e6040518060400160405280600481526020016303ab934960e51b8152506121a9565b610da7816121a9565b85856001600160a01b0316836001600160a01b03167fff5d918cc8b39ff9335e9625b0dc5440ec9a2aa6b10cd58859dae20c0d9ed00b8685604051610ded929190613c7b565b60405180910390a4505050505050505050565b610e198160405180602001604052806000815250610e1c565b50565b601454600290610e2e9060ff166116f3565b610e388282611a03565b610e545760405162461bcd60e51b8152600401610be190613c57565b6000806000610e6387876112b2565b91945092509050610e7583838361230f565b6000828152600d6020526040902054610e8d816124d7565b5050505050505050565b601454600290610eae90610100900460ff166116f3565b610eb88282611a03565b610ed45760405162461bcd60e51b8152600401610be190613c57565b6000806000610ee387876112b2565b91945092509050610ef583838361230f565b6000828152600d6020526040902054610f3d5760405162461bcd60e51b815260206004820152600a602482015269455243363935362d453360b01b6044820152606401610be1565b6000828152600d6020526040812054610f5891859190612512565b50505050505050565b6001600160a01b038216610f8b57604051633250574960e11b815260006004820152602401610be1565b6000610f9883833361251f565b9050836001600160a01b0316816001600160a01b031614610bf4576040516364283d7b60e01b81526001600160a01b0380861660048301526024820184905282166044820152606401610be1565b610e198160405180602001604052806000815250611c6f565b61100833612094565b6110245760405162461bcd60e51b8152600401610be190613c94565b601a5460ff1615158115150361106a5760405162461bcd60e51b815260206004820152600b60248201526a455243363935362d45323360a81b6044820152606401610be1565b601a805460ff1916821515908117909155604080519182523360208301527fccf7149ae20933032262903106d212029317c574e9b3d8cf35691eba94bd8dda910160405180910390a150565b6110bf33612094565b6110db5760405162461bcd60e51b8152600401610be190613c94565b601b819055604051339082907f5d14c0727e865600a5bd0c79e5bb53019a08131062b817e34deda19d906db7c890600090a350565b600061111b83611ae7565b821061114c5760405163295f44f760e21b81526001600160a01b038416600482015260248101839052604401610be1565b506001600160a01b03919091166000908152600660209081526040808320938352929052205490565b61117e33612094565b61119a5760405162461bcd60e51b8152600401610be190613c94565b6018805483919060ff191660018360078111156111b9576111b96139de565b02179055506018805482919061ff0019166101008360078111156111df576111df6139de565b02179055507f78523927f2b39d8982291fdb927ca3ad1e4250ae0dbd175304bf79c6fd47461182823360405161121793929190613cb8565b60405180910390a15050565b61123e83838360405180602001604052806000815250611c58565b505050565b6000818152600c602052604090205460145461126c9082906112679060ff166116f3565b61257f565b6112a55760405162461bcd60e51b815260206004820152600a60248201526922a9219b1c9a9b16a29960b11b6044820152606401610be1565b6112ae826124d7565b5050565b6000806000806000806060806112ea6040518060400160405280600b81526020016a30ba3a32b9ba30ba34b7b760a91b8152506121a9565b6112f38a612231565b8980519060200120955061132e6040518060400160405280601081526020016f0c2e8e8cae6e8c2e8d2dedc4090c2e6d60831b8152506121a9565b611337866121ec565b8980602001905181019061134b9190613cec565b60408051808201909152600381526203a37960ed1b6020820152959d50939b5091985096509450925061137e90896125fa565b6113a56040518060400160405280600681526020016530b731b437b960d11b8152506121a9565b6113ae876121ec565b6113e06040518060400160405280601081526020016f030ba3a32b9ba30ba34b7b72a34b6b2960851b8152508661263f565b6114116040518060400160405280600f81526020016e03b30b634b229ba30b93a2a34b6b29608d1b8152508561263f565b6114406040518060400160405280600d81526020016c03b30b634b222b7322a34b6b29609d1b8152508461263f565b61146a604051806040016040528060098152602001687369676e617475726560b81b8152506121a9565b61147382612231565b600088888787878660405160200161149096959493929190613d9e565b6040516020818303038152906040528051906020012090506114d56040518060400160405280600c81526020016b0dacae6e6c2ceca4090c2e6d60a31b8152506121a9565b6114de816121ec565b60006114ea8285612684565b90506115136040518060400160405280600681526020016539b4b3b732b960d11b8152506121a9565b61151c81612870565b6001600160a01b0381166000908152600e602052604090205460ff166115715760405162461bcd60e51b815260206004820152600a60248201526908aa4866c726a6c5a8a760b31b6044820152606401610be1565b6000888152600f6020526040902054156115ba5760405162461bcd60e51b815260206004820152600a602482015269455243363935362d453960b01b6044820152606401610be1565b428681116115f85760405162461bcd60e51b815260206004820152600b60248201526a0455243363935362d4531360ac1b6044820152606401610be1565b42601354896116079190613e1e565b116116425760405162461bcd60e51b815260206004820152600b60248201526a455243363935362d45313160a81b6044820152606401610be1565b4286116116805760405162461bcd60e51b815260206004820152600c60248201526b22a9219b1c9a9b16a298989960a11b6044820152606401610be1565b61168b8a8c8e6128b8565b50505050505050509250925092565b60006116a560085490565b82106116ce5760405163295f44f760e21b81526000600482015260248101839052604401610be1565b600882815481106116e1576116e1613e31565b90600052602060002001549050919050565b600080600183600781111561170a5761170a6139de565b148061172757506005836007811115611725576117256139de565b145b8061174357506004836007811115611741576117416139de565b145b8061175f5750600783600781111561175d5761175d6139de565b145b15611768576001175b600283600781111561177c5761177c6139de565b148061179957506006836007811115611797576117976139de565b145b806117b5575060048360078111156117b3576117b36139de565b145b806117d1575060078360078111156117cf576117cf6139de565b145b156117da576002175b60038360078111156117ee576117ee6139de565b148061180b57506006836007811115611809576118096139de565b145b8061182757506005836007811115611825576118256139de565b145b8061184357506007836007811115611841576118416139de565b145b1561085a5760041792915050565b600061185c836120e0565b601a549091506000906118729060ff1684612979565b9050811515811515036118b55760405162461bcd60e51b815260206004820152600b60248201526a455243363935362d45323360a81b6044820152606401610be1565b801561190f576018546118d09085906112679060ff166116f3565b61190a5760405162461bcd60e51b815260206004820152600b60248201526a455243363935362d45323160a81b6044820152606401610be1565b611965565b61192b84611267601860019054906101000a900460ff166116f3565b6119655760405162461bcd60e51b815260206004820152600b60248201526a22a9219b1c9a9b16a2991960a91b6044820152606401610be1565b6000848152601960205260409020805484919060ff19166001836002811115611990576119906139de565b0217905550600d600085815260200190815260200160002054847f813e62061f661fc55f49e41911d374dee0b354ffd1ec9eb04dc18b07d681380485336040516119db929190613e47565b60405180910390a350505050565b6112ae828260405180602001604052806000815250610bfa565b600080836003811115611a1857611a186139de565b6001901b8316151591505092915050565b610e198160405180602001604052806000815250610e97565b600061085a826122cb565b60176020526000908152604090208054611a6690613c1d565b80601f0160208091040260200160405190810160405280929190818152602001828054611a9290613c1d565b8015611adf5780601f10611ab457610100808354040283529160200191611adf565b820191906000526020600020905b815481529060010190602001808311611ac257829003601f168201915b505050505081565b60006001600160a01b038216611b13576040516322718ad960e21b815260006004820152602401610be1565b506001600160a01b031660009081526003602052604090205490565b611b3833612094565b611b545760405162461bcd60e51b8152600401610be190613c94565b601661123e828483613ebb565b606060018054610af890613c1d565b6112ae3383836129b6565b611b8433612094565b611ba05760405162461bcd60e51b8152600401610be190613c94565b6014805482919060ff19166001836007811115611bbf57611bbf6139de565b0217905550336001600160a01b03167f1d95ee98947084e0c5633fec4e9d56cf77a9521d00fc1980628d8ffcffb3403682604051611bfd9190613a08565b60405180910390a250565b611c1133612094565b611c2d5760405162461bcd60e51b8152600401610be190613c94565b6001600160a01b03919091166000908152600b60205260409020805460ff1916911515919091179055565b611c63848484610f61565b610bf484848484612a55565b6000806000611ca26040518060400160405280600d81526020016c7175692063692061727269766f60981b8152506121a9565b611cac85856112b2565b604080518082019091526011815270185d1d195cdd185d1a5bdb881d985b1a59607a1b6020820152919550919350909150611ce6906121a9565b611cf182848361230f565b6000838152600d6020908152604080832054600a9092528220805460ff191660011790559081611d5a5760405162461bcd60e51b8152602060048201526014602482015273105b98da1bdc88191bd95cdb89dd08195e1a5cdd60621b6044820152606401610be1565b8115611dd457506000818152600260205260409020546001600160a01b039081169084168103611db95760405162461bcd60e51b815260206004820152600a60248201526922a9219b1c9a9b16a29b60b11b6044820152606401610be1565b611dd481858460405180602001604052806000815250612b7e565b6000611ddf83611e67565b9050611e066040518060400160405280600481526020016303ab934960e51b8152506121a9565b611e0f816121a9565b85856001600160a01b0316836001600160a01b03167fff5d918cc8b39ff9335e9625b0dc5440ec9a2aa6b10cd58859dae20c0d9ed00b8685604051611e55929190613c7b565b60405180910390a45050505050505050565b6000818152600c60209081526040808320548084526017909252822080546060939190611e9390613c1d565b80601f0160208091040260200160405190810160405280929190818152602001828054611ebf90613c1d565b8015611f0c5780601f10611ee157610100808354040283529160200191611f0c565b820191906000526020600020905b815481529060010190602001808311611eef57829003601f168201915b50505050509050611f376040518060400160405280600381526020016218da5960ea1b8152506121a9565b611f40816121a9565b6000611f4a612b89565b5111611f655760405180602001604052806000815250611f8f565b611f6d612b89565b81604051602001611f7f929190613f7a565b6040516020818303038152906040525b949350505050565b611fa033612094565b611fbc5760405162461bcd60e51b8152600401610be190613c94565b6014805482919061ff001916610100836007811115611fdd57611fdd6139de565b0217905550336001600160a01b03167ffee48a8926f0bd0ed707d644f4862244ce2ec290ddfdb2a5a2e6e360263253a382604051611bfd9190613a08565b61202433612094565b6120405760405162461bcd60e51b8152600401610be190613c94565b6001600160a01b0382166000818152600e6020526040808220805460ff191685151590811790915590519092917fa23e97503ca8c4a0237ff9ad0bcdd4642b7399c1571d1b9f54645ca42273966291a35050565b6001600160a01b03166000908152600b602052604090205460ff1690565b6001600160a01b03918216600090815260056020908152604080832093909416825291909152205460ff1690565b601a54600082815260196020526040812054909161085a9160ff9182169116612979565b60008063f3cdf0f360e01b90506121416040518060400160405280600f81526020016e03732bb9034b73a32b93330b1b29d1608d1b8152506121a9565b61214a81612b98565b61217a6040518060400160405280600f81526020016e03732bb9034b73a32b93330b1b29d1608d1b8152506121a9565b612186610ac384612be1565b6001600160e01b0319831663f3cdf0f360e01b1480610ae25750610ae283612be1565b610e19816040516024016121bd919061374d565b60408051601f198184030181529190526020810180516001600160e01b031663104c13eb60e21b179052612c06565b610e198160405160240161220291815260200190565b60408051601f198184030181529190526020810180516001600160e01b03166327b7cf8560e01b179052612c06565b610e1981604051602401612245919061374d565b60408051601f198184030181529190526020810180516001600160e01b03166305f3bfab60e11b179052612c06565b6000826122818584612c0f565b14949350505050565b6040518115156024820152610e199060440160408051601f198184030181529190526020810180516001600160e01b03166332458eed60e01b179052612c06565b6000818152600260205260408120546001600160a01b03168061085a57604051637e27328960e01b815260048101849052602401610be1565b6112ae828233612512565b6000818152600f602090815260408083208590558483526015909152812054612339906001613e1e565b90508060156000858152602001908152602001600020819055508183856001600160a01b03167ff1308b8e914792ca367aca95e5edcb055205ccb1cff16c794a85b5aaf0a259fc8460405161239091815260200190565b60405180910390a450505050565b6000828152600d6020526040902054156123ba576123ba613fa9565b6000828152601060205260409020546123d281612492565b600181101561243c57601280549060006123eb83613fbf565b919050555060125490506124336040518060400160405280601881526020017f746f6b656e49642064656c20746f6b656e2063726561746f00000000000000008152506121a9565b61243c81612492565b6000818152600c60205260409020541561245857612458613fa9565b6000818152600c60209081526040808320869055858352600d90915290208190556124838183612c5c565b61248d8482612c83565b610bf4565b610e19816040516024016124a891815260200190565b60408051601f198184030181529190526020810180516001600160e01b031663f82c50f160e01b179052612c06565b60006124e6600083600061251f565b90506001600160a01b0381166112ae57604051637e27328960e01b815260048101839052602401610be1565b61123e8383836001612c9d565b6000828152600c6020908152604080832054808452600a90925282205460ff1661256b5761254c816120e0565b1561256b576000818152600a60205260409020805460ff191660011790555b612576858585612da3565b95945050505050565b6000828152600d60205260408120546003806125ba6125b3846000908152600260205260409020546001600160a01b031690565b3385612fd7565b156125c457600091505b6125cd33612094565b156125d6575060015b6125e08286611a03565b806125f057506125f08186611a03565b9695505050505050565b6112ae8282604051602401612610929190613fd8565b60408051601f198184030181529190526020810180516001600160e01b031663319af33360e01b179052612c06565b6112ae8282604051602401612655929190614002565b60408051601f198184030181529190526020810180516001600160e01b0316632d839cb360e21b179052612c06565b600081516041146126c55760405162461bcd60e51b815260206004820152600b60248201526a455243363935362d45313360a81b6044820152606401610be1565b6040517f19457468657265756d205369676e6564204d6573736167653a0a3332000000006020820152603c8101849052600090605c01604051602081830303815290604052805190602001209050612748604051806040016040528060148152602001730cae8d0a6d2cedccac89acae6e6c2ceca90c2e6d60631b8152506121a9565b612751816121ec565b6020838101516040808601516060870151825180840190935260018352603960f91b94830194909452919260001a90612789906121a9565b612792836121ec565b6127b4604051806040016040528060018152602001607360f81b8152506121a9565b6127bd826121ec565b6127df604051806040016040528060018152602001603b60f91b8152506121a9565b6127eb8160ff16612492565b601b8160ff16101561280557612802601b82614024565b90505b6040805160008082526020820180845287905260ff841692820192909252606081018590526080810184905260019060a0016020604051602081039080840390855afa158015612859573d6000803e3d6000fd5b5050604051601f1901519998505050505050505050565b6040516001600160a01b0382166024820152610e199060440160408051601f198184030181529190526020810180516001600160e01b031663161765e160e11b179052612c06565b60008151116128f75760405162461bcd60e51b815260206004820152600b60248201526a455243363935362d45323560a81b6044820152606401610be1565b60608180602001905181019061290d919061403d565b905061293560405180604001604052806005815260200164383937b7b360d91b8152506121a9565b61293f8482610860565b61248d5760405162461bcd60e51b815260206004820152600b60248201526a22a9219b1c9a9b16a2991b60a91b6044820152606401610be1565b60008082600281111561298e5761298e6139de565b0361299a57508161085a565b60018260028111156129ae576129ae6139de565b149392505050565b6001600160a01b0382166129e857604051630b61174360e31b81526001600160a01b0383166004820152602401610be1565b6001600160a01b03838116600081815260056020908152604080832094871680845294825291829020805460ff191686151590811790915591519182527f17307eab39ab6107e8899845ad3d59bd9653f200f220920489ca2b5937696c31910160405180910390a3505050565b6001600160a01b0383163b15610bf457604051630a85bd0160e11b81526001600160a01b0384169063150b7a0290612a979033908890879087906004016140cd565b6020604051808303816000875af1925050508015612ad2575060408051601f3d908101601f19168201909252612acf91810190614100565b60015b612b3b573d808015612b00576040519150601f19603f3d011682016040523d82523d6000602084013e612b05565b606091505b508051600003612b3357604051633250574960e11b81526001600160a01b0385166004820152602401610be1565b805181602001fd5b6001600160e01b03198116630a85bd0160e11b14612b7757604051633250574960e11b81526001600160a01b0385166004820152602401610be1565b5050505050565b611c6384848461303a565b606060168054610af890613c1d565b6040516001600160e01b031982166024820152610e199060440160408051601f198184030181529190526020810180516001600160e01b031663e05f48d160e01b179052612c06565b60006001600160e01b0319821663780e9d6360e01b148061085a575061085a826130ea565b610e198161313a565b600081815b8451811015612c5457612c4082868381518110612c3357612c33613e31565b602002602001015161315b565b915080612c4c81613fbf565b915050612c14565b509392505050565b6000828152600c60209081526040808320548084526017909252909120610bf4838261411d565b6112ae82826040518060200160405280600081525061318a565b8080612cb157506001600160a01b03821615155b15612d73576000612cc1846122cb565b90506001600160a01b03831615801590612ced5750826001600160a01b0316816001600160a01b031614155b8015612d005750612cfe81846120b2565b155b15612d295760405163a9fbf51f60e01b81526001600160a01b0384166004820152602401610be1565b8115612d715783856001600160a01b0316826001600160a01b03167f8c5be1e5ebec7d5bd14f71427d1e84f3dd0314c0f7b2291e5b200ac8c7c3b92560405160405180910390a45b505b5050600090815260046020526040902080546001600160a01b0319166001600160a01b0392909216919091179055565b60008281526002602052604081205481906001600160a01b03169050612de36040518060400160405280600381526020016270726560e81b8152506121a9565b6001600160a01b03831615612e4557612e156040518060400160405280600281526020016134b360f11b8152506121a9565b612e208184866131a1565b612e45604051806040016040528060048152602001631c1bdcdd60e21b8152506121a9565b6000600c6000868152602001908152602001600020549050612e9b6040518060400160405280601981526020017f75726920746f6b656e20696e73696465207570646174653a20000000000000008152506121a9565b612ea485612492565b6000612eaf86611e67565b9050612eba816121a9565b81876001600160a01b0316846001600160a01b03167fff5d918cc8b39ff9335e9625b0dc5440ec9a2aa6b10cd58859dae20c0d9ed00b8985604051612f00929190613c7b565b60405180910390a46001600160a01b038716612f44576000828152601060209081526040808320899055600d8252808320839055888352600c909152812055612faa565b6000828152600a6020526040902054612f5f9060ff1661228a565b6000828152600a602052604090205460ff16612faa5760405162461bcd60e51b815260206004820152600a602482015269455243363935362d453560b01b6044820152606401610be1565b6000828152600a60205260409020805460ff19169055612fcb878787613205565b50919695505050505050565b60006001600160a01b03831615801590611f8f5750826001600160a01b0316846001600160a01b03161480613011575061301184846120b2565b80611f8f5750506000908152600460205260409020546001600160a01b03908116911614919050565b6001600160a01b03821661306457604051633250574960e11b815260006004820152602401610be1565b60006130728383600061251f565b90506001600160a01b03811661309e57604051637e27328960e01b815260048101839052602401610be1565b836001600160a01b0316816001600160a01b031614610bf4576040516364283d7b60e01b81526001600160a01b0380861660048301526024820184905282166044820152606401610be1565b60006001600160e01b031982166380ac58cd60e01b148061311b57506001600160e01b03198216635b5e139f60e01b145b8061085a57506301ffc9a760e01b6001600160e01b031983161461085a565b60006a636f6e736f6c652e6c6f679050600080835160208501845afa505050565b6000818310613177576000828152602084905260409020610ae2565b6000838152602083905260409020610ae2565b61319483836132d2565b61123e6000848484612a55565b6131ac838383612fd7565b61123e576001600160a01b0383166131da57604051637e27328960e01b815260048101829052602401610be1565b60405163177e802f60e01b81526001600160a01b038316600482015260248101829052604401610be1565b600080613213858585613337565b90506001600160a01b0381166132705761326b84600880546000838152600960205260408120829055600182018355919091527ff3f7a9fe364faab93b216da50a3214154f22a0a2b415b23a84c8169e8b636ee30155565b613293565b846001600160a01b0316816001600160a01b031614613293576132938185613430565b6001600160a01b0385166132af576132aa846134c1565b611f8f565b846001600160a01b0316816001600160a01b031614611f8f57611f8f8585613570565b6001600160a01b0382166132fc57604051633250574960e11b815260006004820152602401610be1565b600061330a8383600061251f565b90506001600160a01b0381161561123e576040516339e3563760e11b815260006004820152602401610be1565b6000828152600260205260408120546001600160a01b0390811690831615613364576133648184866131a1565b6001600160a01b038116156133a257613381600085600080612c9d565b6001600160a01b038116600090815260036020526040902080546000190190555b6001600160a01b038516156133d1576001600160a01b0385166000908152600360205260409020805460010190555b60008481526002602052604080822080546001600160a01b0319166001600160a01b0389811691821790925591518793918516917fddf252ad1be2c89b69c2b068fc378daa952ba7f163c4a11628f55a4df523b3ef91a4949350505050565b600061343b83611ae7565b60008381526007602052604090205490915080821461348e576001600160a01b03841660009081526006602090815260408083208584528252808320548484528184208190558352600790915290208190555b5060009182526007602090815260408084208490556001600160a01b039094168352600681528383209183525290812055565b6008546000906134d3906001906141dc565b600083815260096020526040812054600880549394509092849081106134fb576134fb613e31565b90600052602060002001549050806008838154811061351c5761351c613e31565b6000918252602080832090910192909255828152600990915260408082208490558582528120556008805480613554576135546141ef565b6001900381819060005260206000200160009055905550505050565b6000600161357d84611ae7565b61358791906141dc565b6001600160a01b039093166000908152600660209081526040808320868452825280832085905593825260079052919091209190915550565b6001600160e01b031981168114610e1957600080fd5b6000602082840312156135e857600080fd5b8135610ae2816135c0565b634e487b7160e01b600052604160045260246000fd5b604051601f8201601f191681016001600160401b0381118282101715613631576136316135f3565b604052919050565b60006001600160401b03821115613652576136526135f3565b5060051b60200190565b6000806040838503121561366f57600080fd5b823591506020808401356001600160401b0381111561368d57600080fd5b8401601f8101861361369e57600080fd5b80356136b16136ac82613639565b613609565b81815260059190911b820183019083810190888311156136d057600080fd5b928401925b828410156136ee578335825292840192908401906136d5565b80955050505050509250929050565b60005b83811015613718578181015183820152602001613700565b50506000910152565b600081518084526137398160208601602086016136fd565b601f01601f19169290920160200192915050565b602081526000610ae26020830184613721565b60006020828403121561377257600080fd5b5035919050565b6001600160a01b0381168114610e1957600080fd5b6000602082840312156137a057600080fd5b8135610ae281613779565b600080604083850312156137be57600080fd5b82356137c981613779565b946020939093013593505050565b60006001600160401b038211156137f0576137f06135f3565b50601f01601f191660200190565b600082601f83011261380f57600080fd5b813561381d6136ac826137d7565b81815284602083860101111561383257600080fd5b816020850160208301376000918101602001919091529392505050565b60008060006060848603121561386457600080fd5b83356001600160401b038082111561387b57600080fd5b613887878388016137fe565b9450602086013591508082111561389d57600080fd5b6138a9878388016137fe565b935060408601359150808211156138bf57600080fd5b506138cc868287016137fe565b9150509250925092565b6000602082840312156138e857600080fd5b81356001600160401b038111156138fe57600080fd5b611f8f848285016137fe565b6000806040838503121561391d57600080fd5b82356001600160401b038082111561393457600080fd5b613940868387016137fe565b9350602085013591508082111561395657600080fd5b50613963858286016137fe565b9150509250929050565b60008060006060848603121561398257600080fd5b833561398d81613779565b9250602084013561399d81613779565b929592945050506040919091013590565b803580151581146139be57600080fd5b919050565b6000602082840312156139d557600080fd5b610ae2826139ae565b634e487b7160e01b600052602160045260246000fd5b60088110613a0457613a046139de565b9052565b6020810161085a82846139f4565b8035600881106139be57600080fd5b60008060408385031215613a3857600080fd5b613a4183613a16565b9150613a4f60208401613a16565b90509250929050565b600060208284031215613a6a57600080fd5b610ae282613a16565b60008060408385031215613a8657600080fd5b82359150602083013560038110613a9c57600080fd5b809150509250929050565b60008060408385031215613aba57600080fd5b8235600481106137c957600080fd5b60038110613a0457613a046139de565b6020810161085a8284613ac9565b60008060208385031215613afa57600080fd5b82356001600160401b0380821115613b1157600080fd5b818501915085601f830112613b2557600080fd5b813581811115613b3457600080fd5b866020828501011115613b4657600080fd5b60209290920196919550909350505050565b60008060408385031215613b6b57600080fd5b8235613b7681613779565b9150613a4f602084016139ae565b60008060008060808587031215613b9a57600080fd5b8435613ba581613779565b93506020850135613bb581613779565b92506040850135915060608501356001600160401b03811115613bd757600080fd5b613be3878288016137fe565b91505092959194509250565b60008060408385031215613c0257600080fd5b8235613c0d81613779565b91506020830135613a9c81613779565b600181811c90821680613c3157607f821691505b602082108103613c5157634e487b7160e01b600052602260045260246000fd5b50919050565b6020808252600a9082015269455243363935362d453760b01b604082015260600190565b828152604060208201526000611f8f6040830184613721565b6020808252600a9082015269455243363935362d453160b01b604082015260600190565b60608101613cc682866139f4565b613cd360208301856139f4565b6001600160a01b03929092166040919091015292915050565b60008060008060008060c08789031215613d0557600080fd5b8651613d1081613779565b809650506020870151945060408701519350606087015192506080870151915060a08701516001600160401b03811115613d4957600080fd5b8701601f81018913613d5a57600080fd5b8051613d686136ac826137d7565b8181528a6020838501011115613d7d57600080fd5b613d8e8260208301602086016136fd565b8093505050509295509295509295565b6bffffffffffffffffffffffff198760601b1681528560148201528460348201528360548201528260748201526000609482018351602080860160005b83811015613df757815185529382019390820190600101613ddb565b50929b9a5050505050505050505050565b634e487b7160e01b600052601160045260246000fd5b8082018082111561085a5761085a613e08565b634e487b7160e01b600052603260045260246000fd5b60408101613e558285613ac9565b6001600160a01b039290921660209190910152919050565b601f82111561123e57600081815260208120601f850160051c81016020861015613e945750805b601f850160051c820191505b81811015613eb357828155600101613ea0565b505050505050565b6001600160401b03831115613ed257613ed26135f3565b613ee683613ee08354613c1d565b83613e6d565b6000601f841160018114613f1a5760008515613f025750838201355b600019600387901b1c1916600186901b178355612b77565b600083815260209020601f19861690835b82811015613f4b5786850135825560209485019460019092019101613f2b565b5086821015613f685760001960f88860031b161c19848701351681555b505060018560011b0183555050505050565b60008351613f8c8184602088016136fd565b835190830190613fa08183602088016136fd565b01949350505050565b634e487b7160e01b600052600160045260246000fd5b600060018201613fd157613fd1613e08565b5060010190565b604081526000613feb6040830185613721565b905060018060a01b03831660208301529392505050565b6040815260006140156040830185613721565b90508260208301529392505050565b60ff818116838216019081111561085a5761085a613e08565b6000602080838503121561405057600080fd5b82516001600160401b0381111561406657600080fd5b8301601f8101851361407757600080fd5b80516140856136ac82613639565b81815260059190911b820183019083810190878311156140a457600080fd5b928401925b828410156140c2578351825292840192908401906140a9565b979650505050505050565b6001600160a01b03858116825284166020820152604081018390526080606082018190526000906125f090830184613721565b60006020828403121561411257600080fd5b8151610ae2816135c0565b81516001600160401b03811115614136576141366135f3565b61414a816141448454613c1d565b84613e6d565b602080601f83116001811461417f57600084156141675750858301515b600019600386901b1c1916600185901b178555613eb3565b600085815260208120601f198616915b828110156141ae5788860151825594840194600190910190840161418f565b50858210156141cc5787850151600019600388901b60f8161c191681555b5050505050600190811b01905550565b8181038181111561085a5761085a613e08565b634e487b7160e01b600052603160045260246000fdfea2646970667358221220615511e419c0be1110408165422341ba506c5b5bf24c6e43882fe0c5465ccf9e64736f6c63430008140033",
  "linkReferences": {},
  "deployedLinkReferences": {}
}